:020000041000EA
:1000000000B5324B212058609868022188439860DF
:10001000D860186158612E4B002199600221596106
:100020000121F02299502B49196001219960352056
:1000300000F044F80222904214D00621196600F024
:1000400034F8196E01211966002018661A6600F04E
:100050002CF8196E196E196E052000F02FF8012189
:100060000842F9D1002199601B49196000215960AB
:100070001A491B48016001219960EB211966A021F2
:10008000196600F012F800219960164914480160C1
:100090000121996001BC002800D000471248134993
:1000A000086003C880F30888084703B5996A0420EC
:1000B0000142FBD001200142F8D103BD02B5186610
:1000C0001866FFF7F2FF186E186E02BD00000240BE
:1000D000000000180000070000035F00212200005C
:1000E000F4000018222000A00001001008ED00E03C
:1000F00000000000000000000000000074B24E7A12
:1001000000200420F7010010C3010010C5010010F9
:10011000C1010010C1010010C1010010C101001097
:10012000C1010010C1010010C1010010C701001081
:10013000C1010010C1010010C9010010CB01001065
:10014000CD010010CD010010CD010010CD01001037
:10015000CD010010CD010010CD010010CD01001027
:10016000CD010010CD010010CD010010CD01001017
:10017000CD010010CD010010CD010010CD01001007
:10018000CD010010CD010010CD010010CD010010F7
:10019000CD010010CD010010CD010010CD010010E7
:1001A000CD010010CD010010CD010010CD010010D7
:1001B000CD010010CD010010CD010010CD010010C7
:1001C00000BE00BE00BE00BE00BE00BEEFF3058054
:1001D000103800BEF2EB8871E8AC041010AD0410CA
:1001E0003402001090A31AE700201F49086006C8D7
:1001F00081F3088810471D48006800282FD10DA4FE
:100200000ECC002902D000F012F8F9E71849194A7B
:10021000002000E001C19142FCD1174988471749ED
:1002200088471749884700BEFDE701C901C29A42C5
:10023000FBD3704710AD0410C0000020A82A002096
:10024000F8D604100000042000000420F8D60410A2
:10025000001004200010042000000000704709482E
:1002600003F0D2FC0047000008ED00E0000000D0E1
:10027000A82A0020484F00206923001081040010A4
:10028000312500105756000006005250ABB36053A2
:100290004005041006005250861C0302500504104D
:1002A000060052505422A29D5405041005005250DD
:1002B000DE65F468F8D60410F8B5C0460448054B6E
:1002C00010B5834203D0044B002B00D0984710BDDB
:1002D000A82A0020A82A002000000000064807499C
:1002E000091A8B10C90FC91810B5491003D0044B57
:1002F000002B00D0984710BDA82A0020A82A002073
:100300000000000010B5074C2378002B09D1FFF73F
:10031000D5FF054B002B02D0044800E000BF0123AD
:10032000237010BDB82D002000000000E0FF031076
:10033000054B10B5002B03D00449054800E000BF71
:10034000FFF7CCFF10BDC04600000000BC2D002010
:10035000E0FF031010B5094C200000F079F90848BF
:1003600004F0DAFD6378022B00D1FEE7002BFCD10C
:10037000200000F021F96378F5E7C046A44A002088
:10038000E0FF0310F0B54746CE462A4B80B59946AC
:10039000294B0A279846294E8BB0484604F010FF97
:1003A000414604A800F002F9002037F069FB07A8D5
:1003B000414600F0FBF80798002804D0099B191A61
:1003C000039304F047FC059B0498039383421DD0DC
:1003D000002500244019018883884288009130005C
:1003E000210004F0EDFE059B049803931A1A5210A5
:1003F00093009B1819015B1819025B1819045B180C
:100400005B0001349B180635A342E3D800280CD0CA
:10041000069B013F191A039304F01CFC002FBCD16A
:100420000BB0C0BCB946B046F0BD013F002FB4D1FF
:10043000F6E7C046FCFF0310A44A00201C0004108D
:1004400070B50D4804F0BCFE0C4C2378012B06D08F
:10045000022B05D0002B0DD0FFF794FF70BDFEE7F7
:100460000125200000F09EF8200000F09DF82800F3
:10047000FFF770FF0025F4E740000410A44A0020B5
:1004800010B504F0A9FE034804F046FDFFF7D8FFBD
:10049000002010BD5800041010B5034807F0F8FA0A
:1004A000024800F03DF910BD8C440020A44A002011
:1004B00030B54B780C008FB0012B05D0022B40D00B
:1004C000002000210FB030BD3333002207A90AAD50
:1004D00008A80793089524F0B5FB079B34222B4905
:1004E0000A93089004F0A0FB0022079B0899099347
:1004F000CA54099B08991A002548059323F0B0FFB8
:100500000898A84203D00A99013104F0A3FB022302
:10051000637000F083FF050001F0A0F900231D4A7D
:1005200012184B41002B08DB002102911A492800C8
:100530000194009100F076FFC2E70122174B52426E
:10054000F2E72E33002207A90AAC08A80793089403
:1005500024F078FB079B302211490A93089004F09D
:1005600063FB0022079B08990993CA54099B0899C9
:100570001A000748059323F073FF0898A0429FD004
:100580000A99013104F066FB9AE7C046880004101E
:10059000BC41002080969800B1040010FFFFFF7F4F
:1005A000C00004107047C0467047C0460023036077
:1005B000836043607047C046112330B58FB000227E
:1005C00007A904000AAD08A80793089524F03AFB90
:1005D000079B112219490A93089004F025FB002279
:1005E000079B08990993CA54099B08991A00144853
:1005F000059323F035FF0898A84203D00A990131EA
:1006000004F028FB00F00AFF050001F027F90023A1
:100610000C4A12184B41002B0BDB002102910A49B6
:1006200028000194009100F0FDFE012363700FB0DB
:1006300030BD0122054B5242EFE7C04618010410BD
:10064000BC41002080969800B1040010FFFFFF7F9E
:100650001A23F0B58BB0002203A906AE04A80393B9
:10066000049624F0EFFA039B1A222549069304907E
:1006700004F0DAFA0022039B04990593CA54059BFF
:10068000204F1A0038000499019323F0E9FE0498E2
:10069000B04204D0069B591C019304F0DBFA0024FD
:1006A000194DFA20800001F019F8210028000134CA
:1006B00004F086FD0A2CF4D11323002203A904A818
:1006C0000393049624F0BEFA039B13220F4906936A
:1006D000049004F0A9FA0022039B04990593CA54DC
:1006E000059B38001A000499019323F0B9FE049881
:1006F000B04203D00699013104F0ACFA0BB0F0BD62
:100700002C010410BC410020480104104C010410CD
:1007100010B5024807F0BCF910BDC0469044002057
:10072000F0B50500CE4647462E0080B5041D91B0B9
:100730000C36200000F0C6F8300000F0F7F8280072
:10074000143000F0D9F828001C3000F0D5F8300043
:1007500000F0E8F8431E98414A4E17224A49A87013
:10076000300023F07DFE200000F0A0F88046002835
:1007700062D02100684600F09DF81022694606A864
:1007800004F052FA002106A801F0A2FE2C230AACC4
:10079000059305AB1900002220000CAF99460A977B
:1007A00024F050FA059B2C2238490A90A36004F0EB
:1007B0003BFA0022059B0A996360CA54344B083205
:1007C00098464146300023F04BFE300062680A999B
:1007D00023F046FE0A98B84203D0A368591C04F0DF
:1007E00039FA1E2300224946200005930A9724F077
:1007F00029FA059B1E2227490A90A36004F014FAE7
:100800000022059B0A9963603000CA5441460832B1
:1008100023F026FE300062680A9923F021FE0A9830
:10082000B84203D0A168013104F014FA280011B0D5
:10083000C0BCB946B046F0BD00220023002108909C
:1008400006A80692079301F043FE2E230AAC0593F7
:1008500005AB1900002220000CAF99460A9724F03E
:10086000F1F9059B2E220C490A90A36004F0DCF9F3
:100870004146059B0A9A6360D154054B082298466D
:100880009FE7C046BC410020000104106001041035
:10089000F4000410C00104109001041010B50248C7
:1008A00007F0F6F810BDC0469444002000207047C1
:1008B0007047C0460022002302604360002383602B
:1008C0007047C046014B083303607047E0010410D5
:1008D00010B5024807F0DCF810BDC046984400206F
:1008E00010B5024807F0D4F810BDC0469C44002063
:1008F000002070477047C046014B083303607047C3
:10090000F001041010B5024807F0C2F810BDC0464F
:10091000A044002010B5024807F0BAF810BDC04648
:10092000A4440020002070477047C046014B0833A4
:10093000036070470002041010B5024807F0A8F8E1
:1009400010BDC046A8440020094A830094464022B6
:10095000634410B51C68C0006240C024144080226B
:10096000520113431C60034B9C466044416010BD20
:1009700004C0014000400140024B18688007C00FCE
:100980007047C04600C0064070B5EFF3108C72B6D9
:100990000D4D2B68002BFCD0BFF35F8F0724CB08D5
:1009A000C618C05C01230C40A3401C000440034255
:1009B00007D103433370BFF35F8F2C608CF3108833
:1009C00070BD100001F0D2FD2C0100D0F8B54746F3
:1009D000CE46884680B5EFF3108C72B6214D2C6858
:1009E000002CFCD0BFF35F8F9A422CD8D408072785
:1009F000055D061901241740BC402C421FD0072179
:100A00000127894609E0D408055D06194C463900DE
:100A10001440A1400C00294211D001329342F2D27D
:100A200001204042BFF35F8F00220E4B1A608CF30F
:100A3000108800280FDBC0BCB946B046F8BD2C4377
:100A400010003470EEE7BFF35F8F00232B608CF350
:100A50001088012040424346002BECD0089801F05A
:100A600085FDC0462C0100D00021044B044ABFF391
:100A70005F8F02C39342FAD17047C046000100D095
:100A8000800100D0044A1078431CDBB2172B00D938
:100A9000102313707047C046BC1E002000B5054BE4
:100AA00083B00100009318221F230348FFF78EFF35
:100AB00003B000BD10020410104A0020012383403F
:100AC000002904D0034A1360034A13607047034AA5
:100AD0001360FBE780E200E000E100E080E100E07D
:100AE00001238340014A13607047C04600E200E0E2
:100AF000084B10309B688000C358002B07D0064A73
:100B000000209B1A2F229A424041C0B27047002019
:100B1000FCE7C04600ED00E0C01E0020024B103094
:100B20009B688000C058704700ED00E070B50D0074
:100B3000EFF3108672B60F4A1368002BFCD0BFF398
:100B40005F8F0D4B10309B6884001B590B4A9342FA
:100B500003D09D4201D001F021FD074B9B681D5140
:100B6000BFF35F8FBFF35F8F0022024B1A6086F3E3
:100B7000108870BD240100D000ED00E0CD01001010
:100B8000F0B557464E46DE464546E0B585B0060010
:100B900002911700EFF3108B72B6674A1368002BAF
:100BA000FCD0BFF35F8F0025644B5D579A46002D44
:100BB00000DAA4E06B00624C03935B199B0098463B
:100BC000A146C1444B4652469B79103613705D4B8B
:100BD000B2009B68019299580B1B2F2B34D95A4BAA
:100BE000994200D0A4E0039B584A9C46584B654468
:100BF000AD006353434602336519E418554B012198
:100C0000043B1B1B1B055B0D13436B80524BEF71A9
:100C1000AB80FF23AB71029BAB604B460B431900CB
:100C2000484B019A9B689950BFF35F8FBFF35F8F6A
:100C30000022414B1A608BF3108805B0F0BCBB4614
:100C4000B246A946A046F0BD01200A008243D379EE
:100C5000BB422FD845464E46130040491B1B5B4103
:100C60005943090D3A4B63533A4B02356519043B1E
:100C70005B1B1B05354D5B0D2B4373800426B4466F
:100C8000E0444444131F1B1B4C46A17102991B05F1
:100C9000A16049465B0D2B43A380314BE7710143B3
:100CA0001360BDE75800C01880002018C679BE4206
:100CB0002BD902000623D356002BF3DA101D8246EF
:100CC0002848804604267642B446E14450464E46C3
:100CD000361A3005400D824656461C48957106432B
:100CE0009680039A944665441D4AAD0064192260BB
:100CF0004246A371029BA280E771A36090E701F0D6
:100D00004DFC002553465D5754E7101D82469088E0
:100D10004005001584464046D444664604302018F9
:100D2000301AE0260005400D360230438046C9E700
:100D300001F034FC57E7C046240100D0414F0020A9
:100D4000C01E002000ED00E0CD01001000E0FFFF1C
:100D500000A1FFFFF01E002001BDFFFFAAAA0000B6
:100D60000148804701BD0000F0B5DE4657464E46BB
:100D70004546E0B50C0083B0EFF3108972B6584ACF
:100D80001368002BFCD0BFF35F8F564B9A680300AB
:100D900010339F00D559544A9046954232D0A5420F
:100DA00043D0524EAA1B2F2A2CD8012282409246B1
:100DB00051464F4A12681140019151464D4A116007
:100DC000BFF35F8FEFF305829346002A33D10123EF
:100DD0002A009A4393689C4208D177E04B005B1845
:100DE0009B00F3189968A1422AD01A000621515697
:100DF0000029F3DA019B002B19D052463E4B1A60B2
:100E00003B4B1A60374B9B68DD51BFF35F8FBFF3DD
:100E10005F8F0022324B1A6089F3108803B0F0BC58
:100E2000BB46B246A946A046F0BD1500EAE75246C9
:100E3000304B1A60E6E79342C9D001F0AFFBC6E73A
:100E400006215956002921DB4A0050188000341829
:100E50008046A0689860E079D87106202056987185
:100E6000002824DBA488F01A6405241544440019E2
:100E7000E0240005400D24022043988052181F4BA7
:100E80009200B6181A781970B271B3E75946002962
:100E90000FD1FF3191711A49918018490A789A71DE
:100EA000184A9B1B5B415A43120D0A70A2E7164871
:100EB000E3E7164A1649D21A083A5002400D014398
:100EC0009980144952080A43DA8093E70621515663
:100ED00013000029B8DA5A46002AEAD14546DCE771
:100EE000240100D000ED00E0CD010010C01E002064
:100EF00000E100E080E100E080E200E0414F0020FE
:100F000001BDFFFFAAAA000001BD0000FA1E0020DB
:100F100000F0FFFF00F8FFFF70B5EFF3058101243B
:100F20000443EFF3108C72B6214A1368002BFCD0F7
:100F3000BFF35F8F1F4B05001F4AED1A6D416A43D7
:100F4000120D1E4D8900AE6852B27658A6421CD0D2
:100F50000621595691421CD012215956914222D055
:100F60001E215956914220D02A21595603249142DC
:100F700010D0134B19781A708171BFF35F8F002264
:100F80000B4B1A608CF3108870BDAB680D4C5C5035
:100F9000EFE700246100091989005B18FF219971AE
:100FA00009499980E5E70124F4E70224F2E7C04605
:100FB000240100D0C01E0020AAAA000000ED00E01D
:100FC000414F0020CD01001001BDFFFF054B064A37
:100FD0001360064A136053609360D36013615361DA
:100FE000936170478080808000E400E004E400E0CA
:100FF00000B5074B83B0010000930022052305488C
:10100000FFF7E4FC002801DB1F23181A03B000BD22
:101010002C020410464F0020024B9C46614489007C
:10102000016070474000003410B50400FFF72AFD4E
:1010300001002000FFF7F0FFFF232371BFF35F8F54
:1010400010BDC04610B50400FFF71CFD01002000D4
:10105000FFF7E2FFFF23A380BFF35F8F10BDC04601
:1010600010B504000120FFF719FD044B9C466044B5
:1010700080002060BFF35F8F10BDC0464000003489
:10108000034B9C46614489000160BFF35F8F70474A
:101090004000003483680B4810B5844661446244C4
:1010A000090112019A18591854684B6801209C4292
:1010B00001D802D00020C0B210BD12680B689A425D
:1010C000F9D8F7E7FFFFFF0F0A4B1968EFF310801D
:1010D00072B60A68002AFCD0BFF35F8F1B68BFF3AB
:1010E0005F8F00221A6080F3108840BF002000212B
:1010F0007047C046084F0020F8B557464E46454653
:10110000DE46E0B599460CAB1C780DAB1B780600AB
:1011100090469A460768002C11D1BC7B002C42D027
:1011200065003B682D19033D59194B78BB73002BA3
:1011300000D1FB7300238B704B700B7004E06500D3
:101140003B682D19033D5919B2682A4B9446424613
:10115000E3181B0163441A604A465A600A9A9A606F
:101160000B9ADA6000238B704B700B707B7B9B4675
:10117000002B2BD022005946B8687B6898473A6804
:10118000002816D05B4658465B005B445519033B6C
:10119000A870D118D35C002B00D06B705B460C702C
:1011A0007B73A34513D0F0BCBB46B246A946A0460C
:1011B000F8BD5B465B005B44033BD3189C70511940
:1011C000525D002A00D05A705B460B707C73424619
:1011D0004B46307D00F0CCFB051E06D05346002B5D
:1011E00003D12100306800F0EDFD0E9B002BDAD01A
:1011F0001D70D8E7FFFFFF0FF0B5DE4657464E469D
:1012000045460023E0B58BB00893664B8200D45866
:1012100000239B46099000F021FB626806000F0046
:10122000EFF3108572B61368002BFCD0BFF35F8F0D
:1012300023689C465B7B9946002B68D0A2685A4B7A
:1012400090464B441B01984443461A685B68100063
:101250001900801BB941002963DD099800F088FB63
:1012600000230022984600230692079300239A4603
:101270006368BFF35F8F5A461A6085F31088534640
:10128000002B08D10028C6D10BB0F0BCBB46B2463B
:10129000A946A046F0BD089B414618024B4618439C
:1012A000D047626806000F00EFF3108572B613682E
:1012B000002BFCD0BFF35F8F002F4FDB33003B438D
:1012C00002D02369002B60D12368D97B002907D085
:1012D0004A00521819688C4649466244033A5170D4
:1012E0009A7B002A01D14A469A734A46DA734B46E2
:1012F000E168013BCA5C0132CA545B462361636802
:10130000BFF35F8F5A461A6085F3108883E7002386
:1013100000229846002306920793002300209A4655
:10132000A6E7002901D1002897D10021604600F0EE
:10133000C7FC43461A685B680692079343469B685E
:101340009A464346DB689846E3684B44013B1B786A
:1013500008931B0203432361002089E72369002BC4
:10136000B2D0069A079B921BBB41002B15DB594656
:101370000491012103914946029141460191514650
:1013800020000091FFF7B8FEB7E700F067FA3200DF
:101390003B0012184B41002BE9DA0122034B524269
:1013A000E5E7C046EC4E0020FFFFFF0FFFFFFF7F89
:1013B00010B5144C6368002B04D00A211248FFF7C3
:1013C0002BFE10BD2300114A1021206800F092FB73
:1013D000032000F037FA032000F03AFB03200C4909
:1013E00000F080FAFFF74EFB0A4B9C46032323755F
:1013F000D0231B061B6860446375074B8000606048
:10140000DC60DAE7081F0020084F0020951000106C
:10141000F911001040000034EC4E002000487047E5
:10142000081F0020F0B557464E464546DE46E0B55B
:1014300085B0019310AB1B780600039300239A46F6
:10144000984600927268EFF3108972B61368002B09
:10145000FCD0BFF35F8F3568AC7B002C49D06700B0
:101460002B683F19033FDB195A78AA73002A00D171
:10147000EA73B168484A8C4600980199A218120193
:101480006244106051600E9991600F99D16042469C
:101490009A705A701A706B7B9B46002B45D02200C5
:1014A0001900A8686B6898472A68002830D05B4606
:1014B00058465B005B44D719033BB870D118D35C26
:1014C000002B00D07B705B460C706B735C452DD09D
:1014D000F3681B19013B18787368BFF35F8F4246AE
:1014E0001A6089F310885346002B2CD10002204348
:1014F00007E07368BFF35F8F1C6089F310880120D9
:10150000404205B0F0BCBB46B246A946A046F0BD7D
:101510005B465B005B44033BD3189C70D119D25DE2
:10152000002A00D05A705B460B706C73307D009AB5
:10153000019B00F01DFA82460028C9D021003068C6
:1015400000F040FCC4E7039B002B23D00E9B00203F
:101550000F999847030004000D000B431AD000298F
:101560000ADA009A019B121BAB4100920193002BF7
:101570000ADB039B9A4665E700F070F924184D4199
:1015800000940195002DF4DA0123044C5B42009392
:101590000194EEE70020B4E7FFFFFF0FFFFFFF7F9E
:1015A00070B542680400EFF3108572B61368002B23
:1015B000FCD0BFF35F8F2068CEB2437BB3420AD02A
:1015C000FF230B405A00D318026894466344033B40
:1015D0009B78002B13D0E268FF2394460B406344B2
:1015E000013B0A0A1978D2B291420ED000206368FA
:1015F000BFF35F8F00221A6085F3108870BD2269E7
:101600008A42F3D100202361F1E7310000F0DAFBD8
:10161000EDE7C046407D7047F0B504000D0006269A
:101620007642F717C64636196F4100B584B08F422F
:1016300014D811D000F012F932003B00121A8B417D
:10164000002B15DC002B3ED02000290000F03AF9D9
:1016500004B080BCB846F0BD8642EBD90026002716
:1016600000F0FCF832003B00121A8B41002BE9DD40
:10167000002302930193154B3200009314483B0062
:10168000FFF7D0FE0028DFDB00239846BC46114A56
:10169000114F7B6A9C4504D8B96A8E42D4D99C45C7
:1016A000D2D11168EFF3108072B60B68002BFCD01A
:1016B000BFF35F8F1368BFF35F8F4146196080F3FC
:1016C000108820BFE5E7002ABED0D1E7C91000107E
:1016D000081F0020084F00200040054070B506009C
:1016E00000F0BCF8FA2204000D00002330000021B5
:1016F000920003F0CFF900196941002902DBFFF7DE
:101700008BFF70BD012001494042F8E7FFFFFF7FDA
:1017100070B5EFF3058305000C0084B0002B0AD0F0
:10172000164A0020536A9C4203D8926A0130AA42AA
:101730001FD304B070BD124E02930193114B0200EF
:10174000009330000B00FFF76DFE011EE8DD20BFA7
:101750003000FFF725FF094B0020596A8C42E8D87A
:101760009B6A0130AB42E4D2641A631E9C41E0B232
:10177000DFE7E41A631E9C41E0B2DAE7004005406F
:10178000081F0020C9100010F0B5EFF30582D646FF
:101790004F4646461000C0B51038EFF3108872B6B9
:1017A000214C2368002BFCD0BFF35F8F012319006D
:1017B00081401E4D1F006963AA461D4D29601D4DC5
:1017C0002E78AC463500C5402F402B4209D1BFF3DF
:1017D0005F8F276088F31088E0BCBA46B146A84600
:1017E000F0BD5346144D5F6A83005D59AF420ED37E
:1017F000124A8E439B5862461670BFF35F8F0022D9
:10180000226088F31088002BE6D09847E4E70C4B61
:1018100092009C46624413681360BFF35F8F0023FD
:10182000236088F31088D7E7280100D000400540E6
:101830003C700540454F0020144F0020F048002028
:10184000D03F054010B50100024A0348FFF79CF85D
:1018500010BDC04650020410404F0020034B596A8F
:101860000A00986A596A8A42FAD1704700400540D6
:1018700070B504000D00124A536A1900966A536A43
:101880008B42FAD13000190024184D41AB4211D8D7
:101890000ED02B000A494A6A9A42FCD307D1084A63
:1018A00002E0516A994202D1916AA142F9D370BD16
:1018B000A642EED9012301246442E5175B42E9E721
:1018C00000400540064A536A9942FCD807D1044BB0
:1018D00002E05A6A914202D19A6A8242F9D3704771
:1018E0000040054070B504000D00EFF3108672B69D
:1018F0001A4A1368002BFCD0BFF35F8F002D1BD05A
:101900002000FFF70BF9164981420AD02000FFF7AB
:101910000DF901212000FFF7D1F80123A340114A5E
:101920001360114BA400E550BFF35F8F00220B4BF7
:101930001A6086F3108870BD0B4BA200D5500122AF
:10194000A2400A4920000B7893430B700449FFF72B
:101950000BFA00212000FFF7B1F8E5E7280100D0DD
:101960008917001038600540F0480020454F0020DE
:10197000F0B54F46D6464646C0B507002F4C616AC3
:101980000D00A66A616AA942FAD18B4208D805D037
:101990000120E0BCBA46B146A846F0BDB242F7D934
:1019A000EFF3108A72B6264801680029FCD0BFF315
:1019B0005F8F0125BD402349204C88460978894620
:1019C0002943C9B28C46414660460870391D1E48FD
:1019D000890065630A51B9000B50216A0020294231
:1019E00019D0616A0800A66A616A8142FAD18B4205
:1019F00019D801D1B24216D8CC451DD00F4B1F20AB
:101A00001D625D6301230740BB40104A1E3813600E
:101A100043464A461A70BFF35F8F0022084B1A6094
:101A20008AF31088B5E70020BFF35F8F0022044BD4
:101A30001A608AF31088ACE70120ECE7004005400B
:101A4000280100D0454F0020144F002080E200E024
:101A5000EFF3108C72B60A490B68002BFCD0BFF371
:101A60005F8F01238340074A0748136202789A4335
:101A70000270BFF35F8F00230B608CF310887047F8
:101A8000280100D000400540454F002070B50500FA
:101A900014001600002915D00C00002A12D080680E
:101AA0006B689847296800280ED073009B19620064
:101AB000033B1219CB18033A9C7088188A5C002AE1
:101AC00015D10670200070BD63001B197200033B26
:101AD0009219CB18033A9E7088188A5C002A02D1AA
:101AE00004703400EEE75A7004703400EAE75A706C
:101AF0000670E7E730B583600023CCB2437301334F
:101B0000047342608373C4730D000068012C06D90E
:101B1000421C0133DBB2137003329C42F9D1FF2126
:101B200029404B005918002340180338437030BD3A
:101B3000F8B5CE46474606000C0080B5002907D010
:101B40004D0003686D18033D5A195778002F04D1D2
:101B50002000C0BCB946B046F8BD7900C9190339A8
:101B600088464344597889460021597051707368FA
:101B70003A002100806898473368002814D0424614
:101B80009A18947059195B5D002B00D053700F7038
:101B9000270049463000FFF7CBFF39000200300034
:101BA000FFF774FF0400D3E7424641465D19AF706A
:101BB0009A185B5C002B00D06B701470E9E7C0468C
:101BC000F0B557464546DE464E46E0B50D006B0083
:101BD00001685B19DF1E0400C85D83B00192CA1959
:101BE000002850D043001B18033BCB185E78B44646
:101BF000002E1AD1019E002E42D0E67B002E04D08A
:101C000073009B19CB18033B5D70A37B002B00D1A5
:101C1000A573E57300282FD10023537003B0F0BCE7
:101C2000BB46B246A946A046F0BD72006244033AE4
:101C300089184A78904600224A7091465A700100ED
:101C400032002000FFF722FF43468246002B07D0D8
:101C50005B0021684344033BCB185A78002A16D115
:101C6000424651462000FFF711FF2168019BCA1927
:101C7000002BC2D10028CFD043001B18033BCB1848
:101C800000219970C8E7019B002BB6D1C4E7500032
:101C900080180338091848788346484648705870B9
:101CA00041462000FFF7F2FE594680462000FFF72C
:101CB0003FFF414602002000FFF7E8FE8046CFE7E5
:101CC000F0B557464546DE464E46E0B583B0019135
:101CD000457B04006B0000685B19DF1EC15DC21903
:101CE000002952D04B005B18033BC3185E78B44602
:101CF000002E1CD1019E002E44D0E67B002E04D085
:101D000073009B19C318033B5D70A37B002B00D1AC
:101D1000A573E573002931D1002328005370617346
:101D200003B0F0BCBB46B246A946A046F0BD720067
:101D30006244033A801842789046002242709146ED
:101D40005A7020003200FFF7A1FE43468246002B66
:101D500007D05B0021684344033BCB185A78002A24
:101D600017D1424651462000FFF790FE019B01002B
:101D70002068C219002BC0D10029CDD04B005B18C0
:101D8000033BC31800209870C6E7019B002BB4D119
:101D9000C2E750008018033809184878834648463F
:101DA0004870587041462000FFF770FE5946804643
:101DB0002000FFF7BDFE414602002000FFF766FE4F
:101DC0008046CEE770B5040000292CD0437B8B42BF
:101DD0002ED0056848004018033828188278002A59
:101DE00021D053009B18033BEA5CEE188A4202D1D3
:101DF0001BE0002A08D053009B18033BEB185A78CD
:101E00008A42F6D142785A700023012283704370CF
:101E10002000FFF7D5FE617B02002000FFF736FEB1
:101E20006073012000E0002070BD43783370EBE761
:101E300001221900FFF7C4FE60730120F4E7C046D9
:101E4000F8B5040006200D0000F0C8F9002844D0C1
:101E50002A4B2B49E21853425A418023DB039C460C
:101E60009205284B62441A60274B1A6010008B6859
:101E70009843FBD1214B8021E3185A425341234A16
:101E80005B0049009952062000F0A8F92900C00023
:101E900001F014FFC30921D140270121260080252C
:101EA0006162A36200232C36AD0135432B6006200E
:101EB00000F094F93900800001F000FF6023E26A2D
:101EC00053406E221A4080235B0133431A60104B4B
:101ED000236310232B600D3BA364F8BD0D4A93428E
:101EE00003D900230C4F0D49D8E77F221040013061
:101EF00040089F0119003F180300CFE70080FCBF96
:101F000000C0004000E0004000F00040244F0020EE
:101F100001030000FEFF0000C0FF3F00FFFF0000C4
:101F200030B50C2083B000F0B7F9FEF725FD00288E
:101F30000ED0944B944A1A605A609A60DA601A6123
:101F40005A619A61DA611A62904A5A6203B030BDEE
:101F50008F4CA06700F0F4F901228E4B1A60636C7D
:101F6000012BFCD103228C4B1A60894A936B012B05
:101F7000FCD101330121894A89480093043300F0E0
:101F800033F90523874A00930121874800F02CF993
:101F9000864B5A68FF2A02D8802252005A6080225B
:101FA000784C7D4B21691201804D1A60002905D0C3
:101FB000606901F083FE01300138FDD1E0217B4BE7
:101FC00002201A681140802252012A4311601968C8
:101FD000484003210140116004219A681142FCD05D
:101FE0008022802192012A4309011160802252003F
:101FF0005A606F4B23616F4B5968FF2900D85A60B4
:102000000321644A6B4B116002399A681142FCD07B
:10201000E0201A681040802252011A4310601868AC
:102020004840032101400220116062498A68104241
:10203000FCD0802292011343802212011A60802278
:102040005D4B52004A6063615C4B5968FF2900D8C0
:102050005A6080225A4BE1691201584D1A600029DA
:1020600005D0606901F02AFE01300138FDD1E0227F
:1020700052490B681A4080235B012B431A6080236E
:1020800080229B012B4312011A6080223E4B52009A
:102090004A60E3614B4B5968FF2900D85A6080229F
:1020A000494B216A1201474D1A60002905D0606929
:1020B00001F004FE01300138FDD1E02241490B68F6
:1020C0001A4080235B012B431A60802380229B01EE
:1020D0002B4312011A60802380225B004B602A4B45
:1020E000D2022362394B5968914200D25A60802251
:1020F000374B616A1201354D1A60002905D06069BD
:1021000001F0DCFD01300138FDD1E0222F490B68E0
:102110001A4080235B012B431A60802380229B019D
:102120002B4312011A608023DB024B60174B636262
:10213000284B5A68FF2A02D8802252005A60802217
:10214000254BA1691201234D1A60002905D0606951
:1021500001F0B4FD01300138FDD1E0221D490B68CA
:102160001A4080235B012B431A60802380229B014D
:102170002B4312011A6080235B004B600E4BA3615E
:10218000E4E6C046144A0020006CDC021BB70000E5
:10219000008000403CB0004030B00040002F685943
:1021A00000800240008C864700C002403080004022
:1021B000001BB7003C80004040597307548000402A
:1021C00054B000406080004060B000406C8000402F
:1021D0006CB000404880004048B00040014B800097
:1021E000C0587047144A0020F0B5C646040000B538
:1021F0000C2090461F000E0001F060FD4101091AFD
:102200008D01691AC90009188901404601F056FD7F
:10221000069B3F041A0323681743002B22DB1A4B4B
:102220001A4DE21853425A4180235B019C46120327
:10223000174B62441A60174B1A601100AB68994340
:10224000FBD1C022231D92011A4321232660A060E6
:1022500013602368002BFCDA0823E760136080BC5E
:10226000B846F0BD3F2322681340B342D7D1A368DC
:102270001B051B0D8342D2D1EE22E368D20213402C
:10228000BB42CCD1EBE7C0460040FDBF00C00040E0
:1022900000E0004000F000408023024A9B0003431E
:1022A000D36270470080054010B5140080221B4B9C
:1022B000D2051A6000281AD00123194A1843194B75
:1022C000DA61194A42401A62596298628022134BBD
:1022D000D2051A601549164A1160E022D2041A602C
:1022E000002C07D18022134B12061A6010BD0D4B33
:1022F000D861EBE763011B1B9A00802312191201BE
:102300005B049A4200D30C4A0C4B1A60054B5A608E
:102310008022084BD2051A60E8E7C04600B00540AD
:10232000D3C007B0008005402D3FF84FFCFF0100EF
:102330000820014000A00540FFFFFF00DC4E002008
:10234000AA23064A1B0113602F230549D360054BBE
:1023500019605368002BFCDA7047C0460040024009
:1023600000B0FA00006002402C4B2D4A70B51A6094
:102370002C4A2D4B2D491A6014008B689C43FBD1CD
:102380002B4D2C4EB54208D2013E761BB60808CD27
:10239000984723000134B342F9D1FFF7C1FD264A23
:1023A000214B1A60214A9368DB43DB01DD09002BD6
:1023B000F9D14022214B224C224E9A675A671A6764
:1023C000DA66B44208D223682000002B20D00834FB
:1023D000FEF738FEB442F6D31B4E1C4CC022A16857
:1023E000300002F021FCA660FEF73EFBFEF7EEFD9A
:1023F000FEF7DEFF164C174EB44208D2013E361BE4
:10240000B60808CC98472B0001359E42F9D170BD23
:102410000834FEF709FEB442D5D3DDE700E0004002
:10242000BFCDFBFEFE7F3C0000F0004000C000403E
:10243000582A0020682A0020FFFFFF0100F0014019
:10244000502A0020582A00200000002000ED00E063
:10245000682A0020A82A002000BEFDE7094A0300E0
:102460001068002805D00849C3188B4207D81360AC
:10247000704706480449C31810608B42F7D9012001
:102480004042F5E7D44A002000000420484F0020D5
:10249000D0B5041E15D0FFF7E1F90B4B1A685B6845
:1024A000801A99410023094A06000F0001F02CFC14
:1024B000002320606160054A3000390001F024FCEF
:1024C000A2600020D0BDC046A82B002040420F00D3
:1024D000F8B5002821D004684568E10E6B010B4374
:1024E0006201121BAB41D10D5F020F435602361938
:1024F0006F41B10EBB010B43B201921BBB4181681E
:10250000A4185D410A00CB17A4185D41FFF7A6F996
:10251000001BA941024B186059600020F8BDC0465D
:10252000A82B002000207047012040427047C04681
:1025300010B5FFF791FFC04610B50C0082B019002E
:10254000002A0AD0064B019200930200230005489E
:1025500001F01AFB0120FFF77FFF034B1A00F2E79F
:102560007402041084020410F00004100FB400B5CB
:10257000084883B002F0D0FC049B002B07D005A9CB
:102580001800019101F020FB034802F0C5FC012076
:10259000FFF762FFB40204102801041010B50148CF
:1025A000FFF7E4FFC40204109A4200D28854704737
:1025B0007047C046F8B557464E464546DE46E0B53C
:1025C00099460A9B07009A460D9B8846934615003C
:1025D0000B9E9B0710D10C9B9E420DD29D1B14009D
:1025E0000E005D4422004B46013431002020B847E4
:1025F000A542F7D1B0460B9E002E27D04446751950
:102600005346AA1B013E985D21004B46B847002E59
:10261000F6D123002C0098460D9B9B070FD55B46F7
:10262000E51A0C9BAB420AD94646984622004B4617
:10263000310020200135B8470134A845F6D82000E4
:10264000F0BCBB46B246A946A046F8BD2C00E3E765
:10265000F0B54F464646D646C0B584B098460EAB58
:102660001B78129F994694460D9C109B119EBA07A9
:1026700025D4002E4BD19C4200D3BFE001223A402A
:1026800092461F2C00D9B8E00C9A551E302201E06A
:10269000202C03D001342A55A342F9D85246002AEF
:1026A0000DD0A6420BD9202C44D00C9A551E3022B6
:1026B00001E0202C3ED001342A55B442F9D1FA066B
:1026C0004DD57A053FD4002C39D10F9B102B00D16A
:1026D00079E00F9B022B00D18AE030230C9A012471
:1026E00013704B46002B3FD02D230C9A1355013409
:1026F0000C9B624600930397434602960194FFF7B2
:1027000059FF04B0E0BCBA46B146A846F0BD01226C
:1027100015003D40AA463A422FD04A46002A02D12F
:102720000C323A4200D0013E9C42BAD21F2CABD9A7
:10273000202E27D92024FA06DAD57A0503D4A3421D
:102740002DD0A6422BD00F9B102B32D0022B20D0A5
:10275000202CCDD030220C9B1B191A700134202C58
:10276000C6D04B46002BBFD17B070DD43B07BFD54E
:1027700020230C9A13550134BAE79C429FD21F2C98
:1027800000D881E720249AE72B230C9A13550134B3
:10279000AEE7202CACD00C9B1B1901343AE0631E31
:1027A000012C92D00F9A102A2AD0022A2FD01C0076
:1027B000D0E7BB060ED4202C9AD00C9B1A190134FA
:1027C00078231370C4E7BB060DD478230C9A012438
:1027D0001370BFE7202C00D18AE758220C9B1B19ED
:1027E0001A700134B4E758230C9A01241370B1E72E
:1027F0000C9A603301241370ACE7202400265EE7B6
:10280000023CBA06E9D40C9A12191C00D8E70C9ABB
:102810009246534462221A709AE7C04610B50028C7
:1028200000D110BD02F02CFBFBE7C0460B0010B539
:10283000002802D049681B68984710BDF0B5DE46F5
:1028400057464E464546E0B59BB09B46249B89467D
:102850009846259B0B900C924046424619009A469A
:1028600001F0FDFC002800D0D8E00122404651468E
:10287000774B524201F0EEFC002800D0CEE001225E
:1028800040465146734B524201F0CEFC002800D026
:10289000C4E0002200234046514601F0C5FC002858
:1028A00000D0B9E1424653460A9209938023289A00
:1028B000DB001A400E92289A1A4201D10623269371
:1028C0000A9A099B1600134300D0C7E0289B0025F5
:1028D00000261B0500D49BE100230D93269A0D9B37
:1028E0009A4200DC9FE1D01A431E26938023289A47
:1028F000DB001A430023002728920D93279B002416
:10290000BB4200D9DC1B0223289A1A400E92289A57
:10291000134203D07B427B415B421C400D9B002B4A
:1029200007D00A9809992A00330001F014FC0A9094
:102930000991002200234046514601F075FC002811
:1029400005D0802000068446099961440991289A9F
:10295000414B0B9D13400493269B0A9A0293099BBB
:1029600003940092019349465B4628000C9A00F0BC
:102970008BF90400002F62D0289B220098061F23A9
:10298000C0179843631C984649465B466530A84784
:102990000D9B0025DA179C18DB0F9A465440013F27
:1029A00001E0202D13D00AAA94461F23200063447F
:1029B0000A2101355E1901F081F9303131702000B2
:1029C0000A2101F07BF926000400092EE9D805232D
:1029D0000693002304930A330393534605970B9FF2
:1029E000029312AB009342465B464946380001957C
:1029F000FFF72EFE0E9B0400002B20D00C9BC51A67
:102A0000279BAB421BD91E0022005B464946202073
:102A10000135B8470134AE42F6D810E0289B424653
:102A20000493279B49460393269B0B980293534696
:102A3000009201935B460C9A00F026F904002000F6
:102A40001BB0F0BCBB46B246A946A046F0BDC0468E
:102A5000FFFFEF7FFFFFEFFFFFF7FFFF734B099FC4
:102A60009C467800400D604401F00CFC704A714BAC
:102A700001F08FFB704A714B01F064FB3B03704A1D
:102A80001B0B1A4304000D00300011006D4B002297
:102A900001F04FFB6C4A6D4B01F07BFB02000B0019
:102AA0002000290001F04EFB01F004FC0D9001F024
:102AB000E9FB674A674B04000D0001F06AFB002246
:102AC000654B01F03FFB01F0F5FB644A0600644BE7
:102AD0002000290001F05DFB040030000D000F967E
:102AE00001F0D0FB5F4A604B01F053FB02000B008A
:102AF0002000290001F01DFB02000B0006000F0062
:102B000001F047FB320004000D003B0030003900AB
:102B100001F018FB002210901191544B2000290065
:102B200001F019FB0022524B01F00CFB02000B00DC
:102B30002000290001F00FFB00224E4B01F002FBA8
:102B400002000B002000290001F005FB0D00802190
:102B5000040032003B000020C90501F0EAFA02003F
:102B60000B002000290001F0EDFA02000B00109884
:102B7000119901F0F0FA0022314B01F0E3FA3E4BDB
:102B80000F9C9C4664440022230501F002FB0500D3
:102B90000E0002000B000A98099901F045FB00287D
:102BA0000AD00D9B2800013B31000D930022304BD1
:102BB00001F0D1FA05000E00C6270D992B006331F4
:102BC0008F42BF4128997F420437090500D495E61A
:102BD000334300D182E6099C284A2100284B0A98F9
:102BE00001F030FB002808D000222100254B0A9874
:102BF00001F01AFB002800D070E6269B002B00D1C4
:102C00007CE60E9B5A1E9341269AD31A269375E6AC
:102C1000002304270D9371E643460A9380231B0685
:102C20005344099342E6002326935FE601FCFFFF2D
:102C3000FB799F501344D33FB3C8608B288AC63FAB
:102C40000000F03F0000F83F61436F63A787D23F69
:102C500071A379094F930A400000E03F1655B5BBB8
:102C6000B16B0240EF39FAFE422EE63F00002C40E5
:102C70000000244000001840FF0300002D431CEB1F
:102C8000E2361A3F80842E41F0B54E46DE46574666
:102C90004546E0B597B09946209E219F229B8346EA
:102CA000984607910C923B0032003000390001F049
:102CB000D6FA002800D0A9E1012230003900CA4B21
:102CC000524201F0B1FA002800D0E1E001223000C8
:102CD0003900C64B524201F0BDFA002800D0B7E0DF
:102CE000002230003900C24B01F0B4FA002800D0B5
:102CF00099E0002230003900BE4B01F095FA00281F
:102D000000D090E0002200233000390001F08CFA5E
:102D1000002800D0B1E000230D93249B5B0501D473
:102D20000623984608AB9C461722002430234146D0
:102D3000624404E0013413550139202C01D00929E3
:102D4000F8D888463000390001F0B4FA4346DA007A
:102D5000A94B05009B181A685B680892099301F05B
:102D600091FA02000B003000390001F0E2F9089AF4
:102D7000099B01F00EFA0A900B9101F0BFFA82460E
:102D800001F07CFA02000B000A980B9901F0D1F9CE
:102D900000229A4B0A900B9101F05CFA002800D1B6
:102DA000C0E001239C46E244504601F067FA02006D
:102DB0000B000898099901F03DFA002802D0002381
:102DC0009A4601354346002B6AD008AB17269C462D
:102DD00008956644554614E001235B4243440A21AA
:102DE00028009A4600F06AFF0134303137193970F3
:102DF00028000A2100F062FF092D00D8D0E0D0465B
:102E00000500202CE8D10EAB98460323249A1340EA
:102E1000012B00D196E02023249A01930392239A58
:102E2000434602921EE0249B58460493239B00963F
:102E30000197039343460C9A029307994B46FFF779
:102E4000FDFC17B0F0BCBB46B246A946A046F0BD9B
:102E5000249B5B070ED40322694B249901920391B2
:102E600023990291009358464B460C9A0799FFF715
:102E7000A1FBE6E70422634BEFE73B0032000020B2
:102E8000002101F056F9012306000F000D9344E7DD
:102E9000249B0393239B0293042301935A4BE1E762
:102EA000280001F0EFF902000B003000390001F0BA
:102EB00040F9524B002206000F0001F0B5F90EABAD
:102EC000984600280AD10022300039004B4B01F00F
:102ED000C1F9002802D1EB0700D50135202C94D090
:102EE00008AA94461723280063440A2101341E19B6
:102EF00000F0BCFE3031280031700A2100F0B6FE2F
:102F0000051EEBD10323249A1340012B1BD0202C48
:102F100000D180E70D9B002B35D02D224146631C4C
:102F20000A5579E700220A980B99344B01F07CF995
:102F3000002800D046E75346002B51D101239C4680
:102F4000E2443FE72024239B002BE0D00D9B002B85
:102F500003D1249A0C33134202D0239B013B2393C9
:102F6000239BA342D3D908AB9C461722302362444B
:102F7000202C00D14FE72399013413558C42C6D041
:102F8000202CF8D147E7249B5B0724D4249A230004
:102F9000120700D440E72022414601330A553BE79F
:102FA0005746089D202C00D12DE7220030214046B5
:102FB000002F09D00132B154202A00D123E7D34396
:102FC0001B191B18002BF5D10EAB98462E2341463A
:102FD000541C8B5482E72B224146631C0A551BE785
:102FE000DB0700D4EEE6A9E7FFFFEFFFFFFFEF7F6F
:102FF00065CDCD4165CDCDC1C80404100000E03FD2
:10300000D0020410D4020410E0020410249B0393A5
:10301000239B029303230193004B23E7DC0204105C
:10302000F0B5DE464E4657464546E0B59FB01C001B
:10303000289B91460993C94AC94B8B4608901A6050
:10304000002900D118E2002320789A46002800D1F8
:103050001AE226001D005C460AE02A006F1C4B465F
:10306000089D2100A8473D0001363078002870D027
:103070002528F2D110239B46083B9A46043B9846EC
:10308000023B00219C46721C107816000300203B76
:10309000DBB2102B03D8B34F9B00FB589F460300B5
:1030A000303B092B32D900230A932A2868D0002309
:1030B00098462E283ED00300683BDBB2122B1CD86A
:1030C000A94A9B00D3589F46012301321943DBE7ED
:1030D000634601321943D7E7434601321943D3E728
:1030E0005B4601321943CFE7534601321943CBE720
:1030F00080235B007078194301360300253BDBB267
:10310000532BAAD8994A9B00D3589F460027030007
:10311000B800C01901364000C018337830381A00A2
:10312000303A0700092AF3D90A901800002398467C
:103130002E28C0D180237078DB0019430300303B78
:10314000721C092B00D8A1E12A2800D1B2E1160097
:10315000B1E7A346AA462C00D14503D801235B4220
:103160004B449A464B46524659460020089DA84774
:1031700020001FB0F0BCBB46B246A946A046F0BD39
:10318000099B40CB0A96002E03DB50780993561C0E
:103190008DE72838014370420A9009935078561CF5
:1031A00085E7782800D1DFE1582800D14CE26F286C
:1031B00000D14FE3622801D100F030FC10230A0057
:1031C0009A430B92692801D000F0A9FC0A230C93C2
:1031D0004B0500D5D0E10B9A802311009B001940CC
:1031E0008B461A4200D0A1E2802311005B001940F7
:1031F0008A461A4200D0B6E313005B0600D5EDE222
:10320000130009991B0601D400F076FC08C91BB213
:10321000D8171A18424092B209919346DA0F1292C7
:10322000002B09D1802310220B99DB000B40914326
:103230000B91002B00D0E4E20B9A6123920600D59B
:1032400041230EA91F228C46DBB262440A3B5F4633
:103250001395A34655460C9CB2460D9316000AE002
:103260003033DBB201357355A74200D2EDE2202D99
:1032700000D1EAE207002100380000F01FFDCBB2C8
:103280000929EDD90D9A94466344DBB2EAE780231D
:103290009B007078194301362FE77078682800D1B9
:1032A000CDE180230136194327E770786C2800D1DF
:1032B000BFE180235B00194301361EE7462800D199
:1032C0009BE10722099B0491073393430A9A190053
:1032D0000392424602920CC9089800920193099108
:1032E0002A004B462100FFF7CFFC01360500BCE663
:1032F0002A006F1C4B46089D21002520A847013657
:103300003D00B2E68B0700D4ADE1099B2A009A4646
:103310006B1C9846534601CB21009A46089F4B46AA
:10332000C0B2B8470A9B9C466544012B00D886E290
:10333000089B4746B04626004C4699463A00230073
:10334000013731002020C847AF42F7D1A14653468C
:10335000340046460993013687E6C0462130001006
:10336000D84E0020E80204102C0304107803041047
:10337000099B04CB9B4643460992002B00D1C6E033
:1033800013789C46002B00D1BDE34346013B099ACC
:103390000133D0180A9F130001E0834203D05A780A
:1033A0000133002AF9D1099A0A979B1A0B938023BB
:1033B0000A00DB001A400C92194204D00B9B4345D3
:1033C00001D943460B9302231A000A400D920B4287
:1033D00000D187E16046002800D168E10C9B002BFA
:1033E00000D10DE1A844C246099B57465B1B984695
:1033F000089BB2462A0026004C46994609E0230065
:103400003100551CC8474346585D002800D126E1CD
:103410002A009742F3D1A1463D00340056460D9B49
:10342000002B00D043E15B46013609931DE6099B62
:103430001A0008CA9246002B48D0212211438B461D
:103440000EA884461F216144099500220F27A44637
:103450000D0002E0202A0CD00B003C001C40200094
:103460003730092C00D807380132A85419090F2B1E
:10347000F0D86446099D32E0DC4B207808930023A5
:103480009A46002800D0E4E5002465E6434606009D
:103490000A9F9800C0180132400080191678030076
:1034A00030003038303B0928F3D9300098461600F8
:1034B0000A9700E6099B023604CB9046D243404669
:1034C000D2171040804609933078F4E510220800A6
:1034D000904311321043834600224905B0D55B4624
:1034E0000693082305934346049310230393002374
:1034F000029316AB019200932A004B4621000898D4
:10350000FFF7A6F85346050001360993ADE5137899
:103510009C46002B00D1F7E202235B4237E72023D1
:1035200002009A43472A04D180231B011943022336
:103530009843452801D1202319430722099B049170
:10354000073393430A9A19000392424602920CC928
:1035500008980092019309912A004B462100FFF739
:103560006DF90136050080E510230C930C230A0049
:103570009A430B924B0503D501230B9A9A430B9266
:10358000692800D127E6642800D124E60B9A80231D
:1035900011009B0019408B461A4200D066E180233F
:1035A00011005B0019408A461A4200D039E213002C
:1035B0005B0600D53CE113001B0600D4A6E2099B84
:1035C00004CB1204120C934609935B46002B00D0E7
:1035D0009AE10B9A1033110099430B91520500D4D4
:1035E00092E100239A460B9B06930A9B0593434660
:1035F00004930C9B039300230CE12023194360E602
:10360000099B0A9A5B1B98464B4691461F00B2469F
:103610002600089C2A003B003100A04743460135A4
:10362000585D0028F6D14A463400B94656460A92FB
:10363000F5E6C0239B00B078194302365DE5C02350
:10364000B0781943023658E50C230A009A43143324
:103650001A43103B0B920C934B058DD496E7A14671
:1036600034005646DBE60A9A012A00D853E26B1E64
:103670009F18089BB04626004C4699462A00230016
:10368000013531002020C847BD42F7D1A1463400A2
:103690004646099B3A0001CB210098467D1C4B46CB
:1036A000089FC0B2B847434601360993DDE40B9B3F
:1036B0000A9AA8469A4200D8B5E694466544ED1A9F
:1036C000089B4746B04626004C4699463A002300E0
:1036D000013731002020C847AF42F7D1A14634005E
:1036E0004646A0E60B9A0A99531C914200D814E270
:1036F0004B199B1A1F00089BB24626004C46994660
:103700002A002300013531002020C847BD42F7D1EF
:103710000A9BA14601330B93099B34001B78564644
:103720009C466046002800D058E67CE60722099BAC
:1037300007339343013294469C4462465F68099282
:103740001A68FB17109311931098119903005340B6
:103750000E930B007B400F9394460E9A0F9B121A08
:103760008B410E920F93FB0F6246129300233A4354
:103770009B463DD00B9A6123920600D5412300223F
:10378000DBB20EA90A3B8C4692460D9343461F328C
:1037900062441395159655460E9E0F9FA24690467D
:1037A0000C9C14930CE03032D2B2434601355A558A
:1037B000BB4500D18AE1202D00D18AE106000F002F
:1037C000220000233000390000F0B6FAD2B2092AF4
:1037D000E9D90D9B9C466244D2B2E6E7FF230999E2
:1037E00004C913401A00099117E5C046B12500101D
:1037F0000B9A1033110099430B915205BAD500234F
:103800009A460B9B06930A9B0593434604930C9B95
:103810000393129B02935346019316AB2A00009325
:1038200021004B460898FEF713FF013605001CE403
:10383000FF22099B02CB11408B460993C5E65346F4
:10384000454609930136FFF710FC56465C46AA46EA
:10385000139DD6E708230C930B910B99642800D095
:1038600084E60B9B5B0500D586E6B4E40722099B42
:1038700007339343013294469C44624609921A6886
:103880005B6810009B4613005A46134307D10B9AFE
:103890001033110099430B91520500D5A1E60B9A04
:1038A0006123920600D541230022DBB20EA90A3B18
:1038B0008C4692460D9343461F3262445F461295F2
:1038C000A34655460400B24690460C9E13930DE065
:1038D0003032D2B2434601355A550023BB4200D1A3
:1038E00000E1202D00D100E104000F003200002390
:1038F0002000390000F020FAD2B2092AE8D90D9B45
:103900009C466244D2B2E5E70B9A6123920600D549
:103910004123DBB20EA90A3B1F228C460D932300E4
:1039200062445C461295170055469B46B2460C9E73
:1039300008E03033DBB201357B55B4420ED3202D85
:103940000CD004003100200000F0B8F9CBB20929F6
:10395000EFD90D9A94466344DBB2ECE756465C46D9
:10396000AA46129D3FE6099B1A0008CAD91713926E
:103970005A184A409246DA0F1292002B08D180233F
:1039800010220B99DB000B4091430B91002B2BD1A4
:103990000B9A6123920600D541230EAA1F27944655
:1039A000DBB20A3B0D9567445D460993A346544636
:1039B000B2460C9E08E03033DBB201357B55B44291
:1039C0000ED3202D0CD004003100200000F076F939
:1039D000CBB20929EFD9099A94466344DBB2ECE7EC
:1039E00056465C46AB460D9D0B9B2A0006930A9BF0
:1039F00021000593434604930C9B08980393129B64
:103A0000013602935B46019316AB00934B46FEF7DB
:103A10001FFE139B05000993FFF727FB02230C935E
:103A20001AE7099B04CB92461293002A08D18023FF
:103A300010220B99DB000B4091430B91002B2BD1F3
:103A40000B9A6123920600D541230EAA1F279446A4
:103A5000DBB20A3B0D9567445D460993A346544685
:103A6000B2460C9E08E03033DBB201357B55B442E0
:103A70000ED3202D0CD004003100200000F01EF9E0
:103A8000CBB20929EFD9099A94466344DBB2ECE73B
:103A900056465C46AB460D9D0B9B2A0006930A9B3F
:103AA00021000593434604930C9B0898039300233D
:103AB00002935B46019316AB00934B46FEF7C8FD9D
:103AC000129B050009930136FFF7CFFAB44200D8E4
:103AD00071E6149B54460E960F97AA469846159E7B
:103AE000139D8EE6A64200D8FBE6139B56469846E9
:103AF000AA465C46129D76E508C9D8171A184240B6
:103B00000991FFF78AFB00230B9350E4099B04CB38
:103B10009346099359E52F00BBE50B9301E6063B5D
:103B20000C939AE60EB4012210B585B007AC08CC10
:103B300001000094524204480394FFF771FA05B063
:103B400010BC08BC03B01847A925001000B583B00D
:103B5000009313000A0001000248FFF761FA03B066
:103B600000BDC046A925001000B585B00391012114
:103B700002900093034813004A4202A9FFF750FA4B
:103B800005B000BD2D2800100FB410B50C4984B04D
:103B900006AA08CA0C680392002C0BD000920122DE
:103BA0000848524202A9A047012004B010BC08BC3A
:103BB00004B01847180001F0AFF90020F5E7C0463F
:103BC000D84E00201D28001010B5094A03001468C3
:103BD00084B0002C08D0012200910648524203A96B
:103BE000A047012004B010BD01F096F90020F9E7CC
:103BF000D84E00201D28001001480421014B184711
:103C0000301F0020293C0010142310B50100188833
:103C100004331B88984710BD162310B5010018887F
:103C200002331B88984710BDF8B54746CE4680B58D
:103C30000F1E19D0142399460433040000250126D1
:103C400098464B461888434621681B88984701C40C
:103C5000431E9841013540420640AF42F1D1300049
:103C6000C0BCB946B046F8BD0126F8E7124A936FCA
:103C70009B0815D29066D166002905D0FFE7FFE7C3
:103C8000FFE7516F106F704704B580210906C21716
:103C90005140002800D0C8433CF012F9002104BD77
:103CA000F0B5146E556E576F166FFFF7E3FF14668D
:103CB000556657671667F0BD000000D0114A936F34
:103CC0009B0813D210665166002905D0FFE7FFE775
:103CD000FFE7516F106F704704B5002801D0002036
:103CE000C0433CF0EDF8002104BDC046F0B5146EB1
:103CF000556E576F166FFFF7E5FF146655665767E9
:103D00001667F0BD000000D094464A4A926F9208B0
:103D1000624601D228E0C046F0B5464E346E756E5C
:103D2000776F366F00F020F89446424A1466556665
:103D3000576716676246F0BD94463E4A926F9208F6
:103D4000624601D254E0C046F0B53A4E346E756E0C
:103D5000776F366F00F04CF89446364A1466556615
:103D6000576716676246F0BD002B24DB11D000298F
:103D70003EDA00B5C943404200D1013100F038F8C5
:103D8000C943404200D10131DB43524200D10133EB
:103D900000BD002AEBD1002801D1002905D0002068
:103DA000C90FC90701D1C043410800B53CF050F824
:103DB0000022002300BD00B500290ADBDB4352428C
:103DC00000D1013300F014F8C943404200D1013161
:103DD00000BDC943404200D10131DB43524200D112
:103DE000013300F005F8DB43524200D1013300BD3E
:103DF000002923D1002B18D1002A0CD0BC460D4F2E
:103E000038667A6600210023FFE7FFE7FFE77A6F55
:103E1000386F67467047002801D00748010000B599
:103E20003CF016F80022002300BD02000B00002029
:103E300000217047000000D0FFFFFFFF002B00D0E3
:103E4000BFE0130C28D1002AE7D080B4114F3966A7
:103E50007A66FFE7FFE730B4040C7B6F396F1B0411
:103E600023433B667A66FFE7FFE7FFE7C04684B27D
:103E70007B6F3D6F1B0423433B667A66FFE7FFE7DA
:103E8000C04600232C042D0C7A6F386F001969414D
:103E9000B0BC7047000000D0F0B594460025140E69
:103EA00001D112020835140F01D112010435940F0B
:103EB00001D192000235D40F01D152000135D40B4B
:103EC0000134254F7C66254C3C660E0C93B2FFE70F
:103ED000FFE7FFE73C6F6643360C7703BE4673434C
:103EE000DF0B5B04C01AB941130C7343DB18C91A0A
:103EF000CE086643360CB64493B273431F0F1B01C2
:103F0000C01AB941130C73431F0B1B05C01AB941EA
:103F1000860D8F023E436643360C092D24DB520A80
:103F20007243801A7703460A6643360C16235B1BDE
:103F3000DE40DF40BF1964466643821B704604358D
:103F400006330100D940A840C01900D30131A24274
:103F500006D20023F0BD0000000000D0FFFFFFFFED
:103F6000121B0130F3D3F1E709277F1BFE406446A3
:103F7000A2B27243801A00D20139220C7243130C90
:103F80001204821A99410B00704604351337010060
:103F9000F940A840801900D30131002B02D1A24280
:103FA0000AD2F0BD013000D30131121BFAD2013B1D
:103FB000F8D1A24200D2F0BD013000D30131121B72
:103FC000F7E7F0B51C0C00D080E00CB400251C0A0B
:103FD00004D11B02160E3343120208351C0B04D108
:103FE0001B01160F3343120104359C0B04D19B00B7
:103FF000960F334392000235DC0B02D192185B41DD
:1040000001351C00971864410134464F7C66464CCC
:104010003C660E0CFFE7FFE7FFE7C0463C6F6643D8
:10402000360C7703BE4697B27743C01B00D20139E6
:10403000C01B00D201399FB27743C91BC91B170CA3
:1040400077437E04FF0B801BB941CE086643360CD4
:104050000C2D33DBB644120B1F053A431B0B97B2F2
:104060007743C01B00D201399FB27743C91B170C9D
:1040700077433E043F0C801BB941860D8F023E43BF
:10408000664329277F1BFE400C3D7746AF40BF1992
:1040900030BCA2B2ABB272437343801A9941220C76
:1040A0007243130C1204801A994102000B0001376D
:1040B000001BA941F9D2781E0021F0BD0C277F1BFF
:1040C000FE4077467F0BAF40FF19E0E700245D1C00
:1040D00007D0144F7D663966FFE7FFE7FFE7FFE78C
:1040E0003C6F95B29EB265436643401BB141150CCF
:1040F0001E0C6543664336042F0C3E432D04401BC3
:10410000B141994204D202000B0020000021F0BD11
:1041100001D19042F7D3801A994101349942F2D3E8
:10412000F6E70000000000D0FFFFFFFF48404140DD
:10413000484018B41B4B5B68FC46019308BD04DF84
:104140006344001018B4174B1B68FC46019308BD6C
:1041500000DF6D4400109446134A926F920809D212
:10416000624618B40F4BDB68FC46019308BD0CDFB8
:10417000254700100C4AF0B5146E556E576F166F38
:104180006246FFF7EEFF084A1466556657671667E2
:10419000F0BD18B4034B9B68FC46019308BD08DFD3
:1041A000C9450010B82B0020000000D0FFB55040DA
:1041B0004240504059404B40594000E0FFB5154F38
:1041C0004C00640D03D0BC4204D10C0314D8002071
:1041D000090D09055C00640D03D0BC4204D11C0329
:1041E0000AD800221B0D1B0501264B4009D44B4069
:1041F00003D58B4200D18242FFBD9942FCD190424F
:10420000FFBD0B43DB1803431343F5D0C9434918E3
:10421000FFBD0000FF07000000B5FFF7CFFF01D092
:10422000002000BD012000BD00B5FFF7C7FF8041A1
:1042300000BDC04600B5FFF7C1FF01D9002000BD99
:10424000012000BD00B5FFF7B1FF01D9002000BD7E
:10425000012000BD00B5FFF7A9FF804100BD01208E
:1042600040054A00121804D85A00121801D800203C
:10427000704701207047002070470000002100288F
:1042800005D17047C1174840401AFAD0C90713B585
:10429000064B1B6898470CBC441CA2401005120B2F
:1042A0000349091B09051943114310BD044F0020A0
:1042B0001F04000010B54C00620D8023D218DB00F3
:1042C000D21A5B057E2A10DD9E3A13DACC17090359
:1042D000490819435242D140640001341532202A62
:1042E00005DAD0400843604310BD002010BD0846E9
:1042F000604310BDC80FC018013810BD18B4044B7E
:104300005B6AFC46019308BD24DFD548001000001D
:10431000B82B002018B4044BDB6DFC46019308BD9C
:104320005CDFE14900100000B82B0020C94211D326
:1043300000B549004908002200F018F8002904D40B
:10434000002240428A41114600BD8021090600201A
:1043500000BD000018B4044BDB6EFC46019308BDA1
:104360006CDFE34800100000B82B002018B4044BA9
:104370009B6FFC46019308BD78DFFF4800100000EA
:10438000B82B002018B4044BDB6FFC46019308BD2A
:104390007CDF6D4900100000B82B0020132370B59E
:1043A0001D78012D15D010DD1C48FFF735FC1C4C85
:1043B00001008022200000F037FC022D06D01948B1
:1043C000FFF722FC184B186070BD154C174BA36407
:1043D000F5E7164B124C23606360A360E360236132
:1043E0006361A361E36123626362A362E3622363A7
:1043F0006363A363E36323646364A364E364236587
:104400006365A365E36523666366A366E366236766
:104410006367A367E367A364D1E7C0465344000022
:10442000B82B00204C330000044F00203144001012
:1044300007B5604601880A0A0230DF2AFAD1C9B2FC
:10444000820804D3028840880004104300E000681A
:10445000014A5050039007BDB82B00200FB403BC95
:104460000CBCF0B50124E407634000E0F0B50C0D8E
:10447000CF0F661E3605891B640503D3C94340422E
:1044800000D30131640D03D0661CF60A07D0E41B8B
:1044900000207F00791C89078912803C24031D0DB0
:1044A000DF0F6E1E36059B1B6D0503D3DB435242A7
:1044B00000D301336D0D03D06E1CF60A07D0ED1B3F
:1044C00000227F007B1C9B079B12803D2D032F1B2E
:1044D000661B58D4A446202E46DA20371400BC4070
:1044E0001D00BD40F24033412A4380185941CB0F93
:1044F00005D0C943C0430022644250415141624645
:104500004D0D28D10D0D07D100281FD02419404191
:104510004941013A0D0DF9D0640006D3013000D3B2
:104520000131002C01D140084000013A0BD4941C09
:10453000E40A04D112051144DB071944F0BDD90780
:10454000204B194300E0D9070020F0BD0029DDD140
:10455000002CDBD1F0BD0132C6074008CD0728434F
:104560004908002EE1D0D9E73C2E29DA203E403719
:104570001400BC4000D00124F24014431A00BB4098
:104580001C43D317ACE7AC46202F08DA20360400D2
:10459000B4400D00B540F84039412843A5E73C2F11
:1045A0000CDA203F40360400B44000D00124F8402B
:1045B00004430800B1400C43C117EAE7100019009A
:1045C000002494E70000F07FF0B50C0D661E360560
:1045D000891BE60A6405640D02D0651CED0A04D04F
:1045E000002001210905803C2403A4461C0D671E00
:1045F0003F05DB1BE70A6405640D02D0651CED0A6C
:1046000004D0002201231B05803C2403774064442E
:1046100097B484B296B27443070C7E43150C6F4373
:1046200080B26843361802D3012000043F183004DA
:10463000350C00197D41844688B29AB250430C0C67
:1046400062431F0C7C438EB27E43921902D3012633
:104650003604A4191604170C3618674101BC81B240
:104660009AB25143040C62431B0C5C4380B2584322
:10467000121802D30120000424181004130C40184F
:1046800063412D185E410020474106BC88B293B2B9
:1046900058430C0C6343120C544389B251435B18CA
:1046A00002D301210904641819041A0C0918624183
:1046B0006D1856410020474118BCF902720D114394
:1046C000F0026A0D1043ED020A0D03D16D1940414D
:1046D0004941013B124E9B1B7600B3420ED26D0046
:1046E00007D30130002671416646354301D14008A9
:1046F00040001B05C918E4072144F0BD0BDA013363
:1047000006D1013004D101314F0D01D04908F2E743
:10471000E1070020F0BD013631050020EBE7000085
:10472000FF030000F0B51C0D671E3F05DB1BE70A09
:104730006405640D02D0661CF60A04D00022012331
:104740001B05803C2403D0252D060026F6432E664B
:104750001E096E66CE0FF619B44649004F0D02D001
:104760007E1CF60A03D000200021403F3F033E1B81
:10477000B600B444013F7F05C91B49082E6F0136BE
:1047800076089C02950D25437543ED137543AD13D3
:1047900001356D10F603761B0CB4CC02450D2C438D
:1047A000A2B2B3B25A43270C7B43350C6F43A4B279
:1047B0006C431B1902D3012424043F191C041D0C53
:1047C000A4187D4124196D41009A91B2ACB26143A5
:1047D000170C7C432B0C5F4392B25A43A41802D3AC
:1047E00001221204BF182204230C52187B41019CA1
:1047F0006C431B19520ED9010A434401A01A81B21D
:10480000B2B2514303145A43360C734387B2774311
:10481000D617D21900277E4136049B191704160CAF
:104820007F185E417316ED18F30100268033754141
:10483000A90F06D16400690AE8055B0A184309D28A
:104840002FE00422944480337541A90AA8059B0AED
:10485000184326D3404149412404009A019B0D008E
:104860005543641B4343E41A95B286B27543170C53
:104870007E43030C5F4392B25A43B61802D301221F
:104880001204BF183204330C52197B4152429C412E
:10489000002C02D40022013051414008CA071043C5
:1048A000490802B06246D7079210084BD218084B4D
:1048B0009A4203D212058918C919F0BD0020002AB6
:1048C00001DC3900F0BD01331905F5E7FD030000F7
:1048D000FE070000002200B5203200F010F80800AA
:1048E00000BD002200B500F00CF8CA179A4200D1B2
:1048F00000BDD8430121C907414000BD00220B156E
:104900000AD410B5944600F0A7F81414013400DA64
:104910000021CB17144C204700200021704762442F
:10492000343A0CD40C2A07DA0400914090405242E9
:104930002032D440214310BDD843D94310BD20328A
:1049400007D40C469440524220321141D0402043BB
:1049500010BD0800C917203203D452422032104142
:1049600010BD1800190010BD1F4900104A00520D5B
:10497000144BD21A13DDFF2A1EDAD205CB0FDB0748
:104980001A43C300400F0903490A084310435B0060
:1049900001D301D0013070474308FBD2704702D0E9
:1049A000C80FC00770470A0312130132F8D1420F33
:1049B000072AF5D1012200E0FF22C80F000280186B
:1049C000C00570478003000000210A00002104E0B8
:1049D00000210A00C11704E00022002306E0C046BF
:1049E0000022CB1758405940C01A994130B5184C95
:1049F000A21A002903D1010010D00020203A4C1542
:104A000012D104D2013A001849414C0DFAD3114C8D
:104A1000A24204D212058918DB07C91830BDD2435F
:104A2000520D00200021F5E703D4013A0018494156
:104A3000FBD50B324405C00A4D052843C90A640062
:104A400003D0002460416141E1E7E0D34408F8E786
:104A500032040000FE0700000A0DCC0F531E1B0598
:104A6000C91A520503D3C943404200D30131520D44
:104A700003D0531CDB0A07D0121B00206400611C0A
:104A800089078912803A1203014BD21A704700003D
:104A9000FF03000051434343C9188C46110C83B2F5
:104AA0004B4310B4040C614392B280B25043624352
:104AB0001C041B0C001910BC59411304120CC01823
:104AC000514161447047000007B5484041404840AB
:104AD00001E0C04607B54200120E03D0FF2A03D101
:104AE000420218D8C00DC0054A00120E03D0FF2A9A
:104AF00003D14A020FD8C90DC9050122414005D48E
:104B0000414001D5814207BD884207BD0143491894
:104B100001D0C043001807BD00B5FFF7DBFF01D08F
:104B2000002000BD012000BD00B5FFF7D3FF01D973
:104B3000002000BD012000BD01231B064200D21849
:104B400004D84A00D21801D80020704701207047CD
:104B5000132310B512481C78FFF75EF80100012CF2
:104B60000AD003DD80220F4800F05EF80E48FFF700
:104B70004BF80E4B186010BD0A4C5422200000F078
:104B800053F80B4B6365A365E36523666366A36611
:104B9000E36623676367A367E3672362E361E5E78F
:104BA00053460000B82C00204C330000044F002076
:104BB000B54B001007B5604601880A0A0230DF2AAB
:104BC000FAD1C9B2820804D3028840880004104395
:104BD00000E00068014A5050039007BDB82C002047
:104BE00010B504002EF002FE002804D0034B041977
:104BF0009C4200D810BD0248FDF7B8FC000004201C
:104C00001805041010B52EF0FBFD10BD014804215D
:104C1000014B1847401F0020293C0010014B1B6826
:104C200018470000401F0020014B5B681847000038
:104C3000401F002010B5FFF7D3FF10BD10B5FFF7E0
:104C4000CFFF10BD10B5FFF7DDFF10BD10B5FFF7AA
:104C5000D9FF10BD10B5FFF7D5FF10BD030010B58B
:104C6000080011001B68984710BDC046F0B54646C5
:104C70004F46D646C0B5437D80460E001700002B38
:104C800046D0002A3FDD4B1E9946244B01250024C7
:104C900000209A460DE04B461B5D0D3B5A425341A6
:104CA000325DDBB20A2A0BD02B00013401359F4262
:104CB0001ADD002CEFD14346325D1B7D0A2AF3D169
:104CC000002BF1D1A04204DA4346211A1B683018A8
:104CD0009847434650461B680221984701342800F4
:104CE0002B0001359F42E4DC874204DD4346391A3C
:104CF0001B6830189847F619013E33780D3B5A422D
:104D0000534142461375E0BCBA46B146A846F0BDD1
:104D10000368110030009847F5E7C0468405041089
:104D2000F0B5C6460C000968060000B5802906D01B
:104D30004B1C23606418267180BCB846F0BD0F4B35
:104D40001D68002D16D0231D98460D4F02E02D69D9
:104D5000002D0FD02B68002BF9D03B68002B01D021
:104D6000AB42F4D1280041462268FFF77FFF2D694E
:104D7000002DEFD101230021DBE7C046C84A002007
:104D8000D04A0020F0B5DE4657464E464546E0B5CF
:104D900085B017001C0006000D00FCF75FFD002326
:104DA000304A12184B41002B58DB2F4908008A4625
:104DB0003BF0BEF801906B1C03D1300030F00AFDCF
:104DC0000500002C25D1294B9846294B1C68002C46
:104DD00015D0002F20D1274F02E02469002C0ED0DF
:104DE0002368002BF9D03B68002B01D0A342F4D1FB
:104DF00020002A003100C0472469002CF0D1019B1B
:104E0000002B27D105B0F0BCBB46B246A946A04650
:104E1000F0BD194B9846D8E7164B994602ABDF1DFB
:104E20000A239B4602E02469002CE8D02368002B6B
:104E3000F9D04B461B68002B01D0A342F3D12A00C6
:104E400031002000C0475B460122390020003B7042
:104E5000C047E8E750463AF0F3FFD3E70122074B9B
:104E60005242A2E740420F00502A00206D4C001031
:104E7000C84A0020D04A00205D4C0010FFFFFF7F91
:104E8000F0B5CE46474680B583B06B460600DD1DC3
:104E90002870FCF7E3FC00231A4A12184B41002B40
:104EA0002BDB1949080088463BF042F8174B814636
:104EB0001C68002C14D0164F02E02469002C0FD07F
:104EC0002368002BF9D03B68002B01D0A342F4D11A
:104ED000200001222900FFF7C9FE2469002CEFD130
:104EE0004B46002B05D1300003B0C0BCB946B046DC
:104EF000F0BD40463AF0A4FFF5E70122054B5242CF
:104F0000CFE7C04640420F00502A0020C84A002088
:104F1000D04A0020FFFFFF7F70B5040030F05AFC3C
:104F200000230100050001222000FFF72BFF084BA2
:104F30001C68002C06D06368002B05D098472469B4
:104F4000002CF8D1280070BD2469002CF3D1F9E7BA
:104F5000C84A0020F0B54746D64680B516000F0077
:104F600083B000282DD11C4B1C4D1A685B68019240
:104F700000931B4B9A461B4B984653461C68002CCB
:104F800003D114E02469002C11D02B68002B01D030
:104F9000A342F7D1A368002BF4D031003800984722
:104FA0000028EFDD03B0C0BCBA46B046F0BD4346B2
:104FB00000995B6A994209D842460198926A8242F6
:104FC00002D301204042EDE79942FAD101200021AD
:104FD000FCF74EFCD1E7C04648020410D04A00203E
:104FE000C84A002000400540F0B54646D6464F4628
:104FF0000138C0B50D00160001283ED8FCF72EFC84
:1050000000231F4A12184B41002B32DB1D49B046CA
:10501000080089463AF08CFF8246731C03D12800B1
:1050200030F0D8FB8046184B1C68002C14D0174F6A
:1050300002E02469002C0FD02368002BF9D03B68D4
:10504000002B01D0A342F4D1200042462900FFF7F3
:105050000DFE2469002CEFD15346002B05D1300002
:10506000E0BCBA46B146A846F0BD48463AF0E8FE74
:10507000F5E70122064B5242C8E701267642EEE7E9
:1050800040420F00502A0020C84A0020D04A002089
:10509000FFFFFF7F012040427047C0460120404291
:1050A0007047C046012040427047C04603000222BC
:1050B00000209A42404170470A4A1368002B05D1EC
:1050C0000CE01A001B691032002B07D09842F8D16F
:1050D000002902D103691360016170470029FCD0E7
:1050E0001060FAE7C84A0020F0B5CE46474680B5C2
:1050F000A5B004000D00FCF7B1FB00232A4A1218EA
:105100004B41002B49DB294E30003AF011FF0023C0
:105110000700039322002B00254803A9FEF724FD76
:10512000039B8046002B14D1224B1C68002C06D018
:105130006368002B0BD098472469002CF8D1002F0E
:1051400027D1404625B0C0BCB946B046F0BD246961
:10515000ECE7184B1D689946002D22D0164C02E052
:105160002D69002D11D02B68002BF9D02368002B5E
:1051700001D09D42F4D1039B28001A0004A9019399
:10518000FFF774FD2D69002DEDD14B4603951C688A
:10519000CCE730003AF054FED3E70122074B5242ED
:1051A000B1E70395CBE7C04640420F00502A0020EC
:1051B000214D0010C84A0020D04A0020FFFFFF7F89
:1051C0000FB400B583B004A901C90191FFF78CFFAA
:1051D00003B008BC04B0184710B500F0C7F800F0E1
:1051E000C1FA012010BDC046F0B50D1E15DD0E4BF5
:1051F0000D271A680D4B4519D31859424B410C49DC
:105200005B005E5E20210478A64207D093691942B4
:10521000FCD101301460A842F5D1F0BD9369194268
:10522000FCD11760F2E7C046284F00200080FCBF89
:10523000244F002030B504000D1E26DD0020102173
:105240001B4B013C1A689369194219D101309369CB
:105250001942FCD1136823548542F4D1154B1B68C5
:10526000002B0CD050239363516B183B34320B400E
:105270001100802252010A431360002815D030BD6E
:105280000C4B1B68002BEDD1F7E70A4B1B68002B7A
:105290000BD050223821064B1B689A635A6B34336B
:1052A0001140802252011343196003204042E6E777
:1052B000284F0020004A0020064B10B51B68002B29
:1052C00006D00021044A12689163044A1068984786
:1052D00010BDC046004A0020284F0020084A002088
:1052E0001D4BF0B51A68C64698461C4B0E00D318E5
:1052F00059424B411A4F14331C00050000B53B685E
:10530000002807D0002B11D0164B3D601E6080BCDA
:10531000B846F0BD002BF7D0906300212000FBF7CA
:10532000CDFB20001049FBF71FFDEDE720000E49E3
:10533000FBF7FCFB01212000FBF7C0FB434650229A
:1053400038211B689A635A6B343311408022520112
:1053500013431960D8E7C046284F00200080FCBFE7
:10536000004A0020084A0020B952001010B50C4B2A
:105370000C4C1B780C4B02211B780C4B002023603B
:10538000FBF7E2FA02210120FBF7DEFAE1212068B7
:105390004902FCF755FD01210548FFF78DFE10BDC0
:1053A00004AD0410284F002008AD04100040034055
:1053B000501F00207047C0460022014B1A707047F2
:1053C000424F00204B790020FF2B0BD18B79002B13
:1053D00008D1CB79012B05D1082A03D98A78024B51
:1053E00009301A707047C046424F002001207047B4
:1053F00070B5012909D115495379107909781B0233
:1054000003430020994202D070BD0120FCE753788D
:10541000012B08D0022BF7D1002064220021FCF7D9
:1054200043FF0120F0E79478D2780500120214437C
:10543000D20502D5620A93401D000548FEF7E4FB41
:105440007F210300214028009847C046424F00209A
:10545000554200000123037000487047C80504103E
:1054600048780B788A780002184312041043962279
:10547000CB7810B51B060343D200934200D010BD79
:105480000348FEF7C1FB0021030008009847C0460F
:1054900055420000024B1860024B19607047C0462D
:1054A000044A00200C4A002010B5024B1878FBF784
:1054B00017FB10BD434F0020114B70B51A68002A2E
:1054C0001AD0EFF3108172B610680028FCD0BFF339
:1054D0005F8F00220B48596002701B68BFF35F8F1B
:1054E0001A6081F3108800240025074B1878FBF719
:1054F000F7FA2900200070BDFA240025A400F4E783
:10550000E44E0020444F0020434F002070B50400BB
:1055100000200E0001F002FB002835D0002001F031
:1055200015FB002830D0FCF799F90023184A12180F
:105530004B41002B24DB174D28003AF0F9FC0028E2
:1055400022D0002001F0EAFA00280BD1012000212E
:105550000324404200F0CCFC644228003AF070FC86
:10556000200070BD002001F0F1FA0028EED02100EB
:105570003200002001F0F6FA041EEED1033CECE705
:105580000122054B5242D6E703246442E8E7C046B5
:1055900040420F000C4F0020FFFFFF7FF8B5DE46B2
:1055A000574680B505000C00FCF758F90023364A31
:1055B00012184B41002B5ADB344908008A463AF056
:1055C000B7FC002803D1C0BCBB46B246F8BD0020E2
:1055D00001F0A4FA00284ED00026002C43DD2C4B0D
:1055E0009B4614E0A919002001F030FB07000120C0
:1055F0000021404200F07CFC002001F0EBFAFCF7B7
:105600002DF9234BF61918605960B4422BDD0020A8
:1056100001F036FBA71B0200B84200DD3A00002A69
:10562000E0D101200021404200F062FC002001F0A6
:10563000D1FA002001F072FA002814D0002001F005
:105640001FFB0028E1D1FCF709F95B460F001A683F
:105650005B68002184460F4812184B419F4202D8D4
:10566000D3D19445D1D950463AF0EAFBABE70122B9
:10567000094B5242A0E700200021054B18605960F9
:1056800050463AF0DDFB9EE740420F000C4F0020F1
:10569000B02B002020A10700FFFFFF7F10B5244C96
:1056A00084B0002120003AF01BFC00281CD1214BC3
:1056B0001A68002A16D0EFF3108172B6106800281D
:1056C000FCD0BFF35F8F01241B48596002781B6830
:1056D000D2B20470BFF35F8F0020186081F310888E
:1056E000002A0AD004B010BD01200021404200F081
:1056F000FFFB20003AF0A4FBF4E7FBF78FFE040069
:10570000FCF7ACF8FA220023920012184B41002B50
:1057100009DB01210291002101910849200000913B
:10572000FBF780FEDEE70122054B5242F1E7C0465F
:105730000C4F0020E44E0020444F0020B9540010CC
:10574000FFFFFF7F054B10B51868002804D0044BFD
:105750000022196801F044F810BDC046044A002038
:105760000C4A0020D02310B51B0684B01C68FBF740
:1057700055FEFBF74FFFA04202D0002004B010BD41
:10578000264B1B7801F066FC2548FBF74DFC0120F9
:10579000FBF72EFCFF23234C234920701840FBF716
:1057A000C5F920780121FBF789F90520FBF7A0F95D
:1057B000002822D1FBF732FE0400FCF74FF8FA2252
:1057C0000023920012184B41002B22DB0121029191
:1057D00000210191154920000091FBF723FE0822CA
:1057E000040000211248FFF719FA002CC5DB11480C
:1057F0000121FFF761FC0120C0E700220E490520CE
:10580000FBF7BEF9FBF73EF901000948FBF738FC4E
:10581000EDE70122094B5242D8E7C0460CAD041017
:105820000C4F0020434F00209D560010B95400102B
:10583000E44E0020681F0020A9540010FFFFFF7FE6
:105840000048704780060410004870472C0604107A
:1058500070B5040017480378002B21D0002C06D126
:10586000C1241548154BA4004380048070BD052C4D
:105870001DD8134B1048A400E558811C002304E0F8
:1058800001330A800231132B0ED0EA5CDCB2002A0D
:10589000F6D1C0230134E4B264009B001C43E4E76A
:1058A000112100F017F8D9E7CA24A400DDE7002091
:1058B000DCE7C0462C4F00207C4A00200904000091
:1058C0009406041010B5024800F0D8F810BDC04688
:1058D000FC4E002030B54B1E012900D1A7E0664ADE
:1058E00011780D112C0030349F2900D9A2E00470EA
:1058F000012B00D1BEE00F21147821400C00303480
:10590000092900DD98E04470022B00D1B2E0547800
:105910002511290030319F2C00D990E08170032B94
:1059200000D1A7E00F2121400C003034092900DD0F
:1059300087E0C470042B00D19CE0947825112900E5
:1059400030319F2C00D97FE00171052B00D191E00F
:105950000F2121400C003034092900DD76E044712C
:10596000062B00D186E0D4782511290030319F2CF8
:1059700000D96EE08171072B00D17BE00F2121401F
:105980000C003034092966DCC471082B00D171E0A9
:1059900014792511290030319F2C5FD80172092B11
:1059A00068D00F2121400C003034092958DC4472A2
:1059B0000A2B5FD054792511290030319F2C52D801
:1059C00081720B2B56D00F2121400C003034092955
:1059D0004BDCC4720C2B4DD0947925112900303149
:1059E0009F2C00D9073101730D2B43D00F2121408B
:1059F0000C003034092901DD37310C0044730E2BC3
:105A000038D0D1790C11220030329F2900D90732C9
:105A100082730F2B2ED00F220A4011003731092A32
:105A200001DC30321100C173102B23D01030002361
:105A3000037030BD07345AE737310C0063E7073194
:105A40006CE737310C0074E707317DE737310C0024
:105A500085E707318EE737310C0095E707319DE781
:105A600037310C00A3E70731AAE737310C00C472C5
:105A70000C2BB1D1C018DAE7FC4E002030B5002560
:105A800089B004000922002101A80095FFF7C6F89B
:105A90000922002105A80495FFF7C0F84B236A46A8
:105AA0006846137004A90D223AF0C2F915210822A4
:105AB00020006944FFF7B8F809B030BD10B50121E6
:105AC0000520FAF7FBFF10BD10B5002200210248A7
:105AD00000F05AF910BDC046F84A00208022024B5F
